{
  "contractName": "Token",
  "abi": [
    {
      "inputs": [],
      "stateMutability": "nonpayable",
      "type": "constructor"
    },
    {
      "anonymous": false,
      "inputs": [
        {
          "indexed": true,
          "internalType": "address",
          "name": "owner",
          "type": "address"
        },
        {
          "indexed": true,
          "internalType": "address",
          "name": "spender",
          "type": "address"
        },
        {
          "indexed": false,
          "internalType": "uint256",
          "name": "value",
          "type": "uint256"
        }
      ],
      "name": "Approval",
      "type": "event"
    },
    {
      "anonymous": false,
      "inputs": [
        {
          "indexed": true,
          "internalType": "address",
          "name": "from",
          "type": "address"
        },
        {
          "indexed": true,
          "internalType": "address",
          "name": "to",
          "type": "address"
        },
        {
          "indexed": false,
          "internalType": "uint256",
          "name": "value",
          "type": "uint256"
        }
      ],
      "name": "Transfer",
      "type": "event"
    },
    {
      "inputs": [
        {
          "internalType": "address",
          "name": "",
          "type": "address"
        },
        {
          "internalType": "address",
          "name": "",
          "type": "address"
        }
      ],
      "name": "allowance",
      "outputs": [
        {
          "internalType": "uint256",
          "name": "",
          "type": "uint256"
        }
      ],
      "stateMutability": "view",
      "type": "function",
      "constant": true
    },
    {
      "inputs": [
        {
          "internalType": "address",
          "name": "",
          "type": "address"
        }
      ],
      "name": "balances",
      "outputs": [
        {
          "internalType": "uint256",
          "name": "",
          "type": "uint256"
        }
      ],
      "stateMutability": "view",
      "type": "function",
      "constant": true
    },
    {
      "inputs": [],
      "name": "decimals",
      "outputs": [
        {
          "internalType": "uint8",
          "name": "",
          "type": "uint8"
        }
      ],
      "stateMutability": "view",
      "type": "function",
      "constant": true
    },
    {
      "inputs": [],
      "name": "name",
      "outputs": [
        {
          "internalType": "string",
          "name": "",
          "type": "string"
        }
      ],
      "stateMutability": "view",
      "type": "function",
      "constant": true
    },
    {
      "inputs": [],
      "name": "symbol",
      "outputs": [
        {
          "internalType": "string",
          "name": "",
          "type": "string"
        }
      ],
      "stateMutability": "view",
      "type": "function",
      "constant": true
    },
    {
      "inputs": [],
      "name": "totalSupply",
      "outputs": [
        {
          "internalType": "uint256",
          "name": "",
          "type": "uint256"
        }
      ],
      "stateMutability": "view",
      "type": "function",
      "constant": true
    },
    {
      "inputs": [
        {
          "internalType": "address",
          "name": "owner",
          "type": "address"
        }
      ],
      "name": "balanceOf",
      "outputs": [
        {
          "internalType": "uint256",
          "name": "",
          "type": "uint256"
        }
      ],
      "stateMutability": "nonpayable",
      "type": "function"
    },
    {
      "inputs": [
        {
          "internalType": "address",
          "name": "to",
          "type": "address"
        },
        {
          "internalType": "uint256",
          "name": "value",
          "type": "uint256"
        }
      ],
      "name": "transfer",
      "outputs": [
        {
          "internalType": "bool",
          "name": "",
          "type": "bool"
        }
      ],
      "stateMutability": "nonpayable",
      "type": "function"
    },
    {
      "inputs": [
        {
          "internalType": "address",
          "name": "spender",
          "type": "address"
        },
        {
          "internalType": "uint256",
          "name": "value",
          "type": "uint256"
        }
      ],
      "name": "approve",
      "outputs": [
        {
          "internalType": "bool",
          "name": "",
          "type": "bool"
        }
      ],
      "stateMutability": "nonpayable",
      "type": "function"
    },
    {
      "inputs": [
        {
          "internalType": "address",
          "name": "from",
          "type": "address"
        },
        {
          "internalType": "address",
          "name": "to",
          "type": "address"
        },
        {
          "internalType": "uint256",
          "name": "value",
          "type": "uint256"
        }
      ],
      "name": "transferFrom",
      "outputs": [
        {
          "internalType": "bool",
          "name": "",
          "type": "bool"
        }
      ],
      "stateMutability": "nonpayable",
      "type": "function"
    }
  ],
  "bytecode": "0x60806040526040518060400160405280600c81526020017f54726942494d20546f6b656e0000000000000000000000000000000000000000815250600090805190602001906200005192919062000124565b506040518060400160405280600481526020017f5442494d00000000000000000000000000000000000000000000000000000000815250600190805190602001906200009f92919062000124565b5069d3c21bcecceda10000006002556012600360006101000a81548160ff021916908360ff160217905550348015620000d757600080fd5b50600254600460003373ffffffffffffffffffffffffffffffffffffffff1673ffffffffffffffffffffffffffffffffffffffff1681526020019081526020016000208190555062000239565b8280546200013290620001d4565b90600052602060002090601f016020900481019282620001565760008555620001a2565b82601f106200017157805160ff1916838001178555620001a2565b82800160010185558215620001a2579182015b82811115620001a157825182559160200191906001019062000184565b5b509050620001b19190620001b5565b5090565b5b80821115620001d0576000816000905550600101620001b6565b5090565b60006002820490506001821680620001ed57607f821691505b602082108114156200020457620002036200020a565b5b50919050565b7f4e487b7100000000000000000000000000000000000000000000000000000000600052602260045260246000fd5b610d5e80620002496000396000f3fe608060405234801561001057600080fd5b506004361061009e5760003560e01c8063313ce56711610066578063313ce5671461016f57806370a082311461018d57806395d89b41146101bd578063a9059cbb146101db578063dd62ed3e1461020b5761009e565b806306fdde03146100a3578063095ea7b3146100c157806318160ddd146100f157806323b872dd1461010f57806327e235e31461013f575b600080fd5b6100ab61023b565b6040516100b89190610a93565b60405180910390f35b6100db60048036038101906100d69190610956565b6102c9565b6040516100e89190610a78565b60405180910390f35b6100f96103bb565b6040516101069190610af5565b60405180910390f35b61012960048036038101906101249190610907565b6103c1565b6040516101369190610a78565b60405180910390f35b610159600480360381019061015491906108a2565b6105e9565b6040516101669190610af5565b60405180910390f35b610177610601565b6040516101849190610b10565b60405180910390f35b6101a760048036038101906101a291906108a2565b610614565b6040516101b49190610af5565b60405180910390f35b6101c561065d565b6040516101d29190610a93565b60405180910390f35b6101f560048036038101906101f09190610956565b6106eb565b6040516102029190610a78565b60405180910390f35b610225600480360381019061022091906108cb565b610853565b6040516102329190610af5565b60405180910390f35b6000805461024890610c59565b80601f016020809104026020016040519081016040528092919081815260200182805461027490610c59565b80156102c15780601f10610296576101008083540402835291602001916102c1565b820191906000526020600020905b8154815290600101906020018083116102a457829003601f168201915b505050505081565b600081600560003373ffffffffffffffffffffffffffffffffffffffff1673ffffffffffffffffffffffffffffffffffffffff16815260200190815260200160002060008573ffffffffffffffffffffffffffffffffffffffff1673ffffffffffffffffffffffffffffffffffffffff168152602001908152602001600020819055508273ffffffffffffffffffffffffffffffffffffffff163373ffffffffffffffffffffffffffffffffffffffff167f8c5be1e5ebec7d5bd14f71427d1e84f3dd0314c0f7b2291e5b200ac8c7c3b925846040516103a99190610af5565b60405180910390a36001905092915050565b60025481565b6000816103cd85610614565b101561040e576040517f08c379a000000000000000000000000000000000000000000000000000000000815260040161040590610ab5565b60405180910390fd5b81600560008673ffffffffffffffffffffffffffffffffffffffff1673ffffffffffffffffffffffffffffffffffffffff16815260200190815260200160002060003373ffffffffffffffffffffffffffffffffffffffff1673ffffffffffffffffffffffffffffffffffffffff1681526020019081526020016000205410156104cd576040517f08c379a00000000000000000000000000000000000000000000000000000000081526004016104c490610ad5565b60405180910390fd5b81600460008573ffffffffffffffffffffffffffffffffffffffff1673ffffffffffffffffffffffffffffffffffffffff168152602001908152602001600020600082825461051c9190610b47565b9250508190555081600460008673ffffffffffffffffffffffffffffffffffffffff1673ffffffffffffffffffffffffffffffffffffffff16815260200190815260200160002060008282546105729190610b9d565b925050819055508273ffffffffffffffffffffffffffffffffffffffff168473ffffffffffffffffffffffffffffffffffffffff167fddf252ad1be2c89b69c2b068fc378daa952ba7f163c4a11628f55a4df523b3ef846040516105d69190610af5565b60405180910390a3600190509392505050565b60046020528060005260406000206000915090505481565b600360009054906101000a900460ff1681565b6000600460008373ffffffffffffffffffffffffffffffffffffffff1673ffffffffffffffffffffffffffffffffffffffff168152602001908152602001600020549050919050565b6001805461066a90610c59565b80601f016020809104026020016040519081016040528092919081815260200182805461069690610c59565b80156106e35780601f106106b8576101008083540402835291602001916106e3565b820191906000526020600020905b8154815290600101906020018083116106c657829003601f168201915b505050505081565b6000816106f733610614565b1015610738576040517f08c379a000000000000000000000000000000000000000000000000000000000815260040161072f90610ab5565b60405180910390fd5b81600460008573ffffffffffffffffffffffffffffffffffffffff1673ffffffffffffffffffffffffffffffffffffffff16815260200190815260200160002060008282546107879190610b47565b9250508190555081600460003373ffffffffffffffffffffffffffffffffffffffff1673ffffffffffffffffffffffffffffffffffffffff16815260200190815260200160002060008282546107dd9190610b9d565b925050819055508273ffffffffffffffffffffffffffffffffffffffff163373ffffffffffffffffffffffffffffffffffffffff167fddf252ad1be2c89b69c2b068fc378daa952ba7f163c4a11628f55a4df523b3ef846040516108419190610af5565b60405180910390a36001905092915050565b6005602052816000526040600020602052806000526040600020600091509150505481565b60008135905061088781610cfa565b92915050565b60008135905061089c81610d11565b92915050565b6000602082840312156108b457600080fd5b60006108c284828501610878565b91505092915050565b600080604083850312156108de57600080fd5b60006108ec85828601610878565b92505060206108fd85828601610878565b9150509250929050565b60008060006060848603121561091c57600080fd5b600061092a86828701610878565b935050602061093b86828701610878565b925050604061094c8682870161088d565b9150509250925092565b6000806040838503121561096957600080fd5b600061097785828601610878565b92505060206109888582860161088d565b9150509250929050565b61099b81610be3565b82525050565b60006109ac82610b2b565b6109b68185610b36565b93506109c6818560208601610c26565b6109cf81610ce9565b840191505092915050565b60006109e7600f83610b36565b91507f62616c616e636520746f6f206c6f7700000000000000000000000000000000006000830152602082019050919050565b6000610a27601183610b36565b91507f616c6c6f77616e636520746f6f206c6f770000000000000000000000000000006000830152602082019050919050565b610a6381610c0f565b82525050565b610a7281610c19565b82525050565b6000602082019050610a8d6000830184610992565b92915050565b60006020820190508181036000830152610aad81846109a1565b905092915050565b60006020820190508181036000830152610ace816109da565b9050919050565b60006020820190508181036000830152610aee81610a1a565b9050919050565b6000602082019050610b0a6000830184610a5a565b92915050565b6000602082019050610b256000830184610a69565b92915050565b600081519050919050565b600082825260208201905092915050565b6000610b5282610c0f565b9150610b5d83610c0f565b9250827fffffffffffffffffffffffffffffffffffffffffffffffffffffffffffffffff03821115610b9257610b91610c8b565b5b828201905092915050565b6000610ba882610c0f565b9150610bb383610c0f565b925082821015610bc657610bc5610c8b565b5b828203905092915050565b6000610bdc82610bef565b9050919050565b60008115159050919050565b600073ffffffffffffffffffffffffffffffffffffffff82169050919050565b6000819050919050565b600060ff82169050919050565b60005b83811015610c44578082015181840152602081019050610c29565b83811115610c53576000848401525b50505050565b60006002820490506001821680610c7157607f821691505b60208210811415610c8557610c84610cba565b5b50919050565b7f4e487b7100000000000000000000000000000000000000000000000000000000600052601160045260246000fd5b7f4e487b7100000000000000000000000000000000000000000000000000000000600052602260045260246000fd5b6000601f19601f8301169050919050565b610d0381610bd1565b8114610d0e57600080fd5b50565b610d1a81610c0f565b8114610d2557600080fd5b5056fea2646970667358221220e86feb3089b2cfff7747191da156b35ed55512719de54bf9e37370a113cd64b964736f6c63430008000033",
  "immutableReferences": {},
  "source": "pragma solidity ^0.8.0;\r\n\r\ncontract Token {\r\n    string public name = \"TriBIM Token\";\r\n    string public symbol = \"TBIM\";\r\n    uint256 public totalSupply = 1000000 * 10**18;\r\n    uint8 public decimals = 18;\r\n\r\n    event Transfer(address indexed from, address indexed to, uint256 value);\r\n    event Approval(\r\n        address indexed owner,\r\n        address indexed spender,\r\n        uint256 value\r\n    );\r\n\r\n    mapping(address => uint256) public balances;\r\n    mapping(address => mapping(address => uint256)) public allowance;\r\n\r\n    constructor() {\r\n        balances[msg.sender] = totalSupply;\r\n    }\r\n\r\n    function balanceOf(address owner) public returns (uint256) {\r\n        return balances[owner];\r\n    }\r\n\r\n    function transfer(address to, uint256 value) public returns (bool) {\r\n        require(balanceOf(msg.sender) >= value, \"balance too low\");\r\n        balances[to] += value;\r\n        balances[msg.sender] -= value;\r\n        emit Transfer(msg.sender, to, value);\r\n        return true;\r\n    }\r\n\r\n    function approve(address spender, uint256 value) public returns (bool) {\r\n        allowance[msg.sender][spender] = value;\r\n        emit Approval(msg.sender, spender, value);\r\n        return true;\r\n    }\r\n\r\n    function transferFrom(\r\n        address from,\r\n        address to,\r\n        uint256 value\r\n    ) public returns (bool) {\r\n        require(balanceOf(from) >= value, \"balance too low\");\r\n        require(allowance[from][msg.sender] >= value, \"allowance too low\");\r\n        balances[to] += value;\r\n        balances[from] -= value;\r\n        emit Transfer(from, to, value);\r\n        return true;\r\n    }\r\n}\r\n",
  "sourcePath": "C:/Users/TriAzur/Desktop/TRAVAIL/BLOCKCHAIN/dapp-bsc-swap/contracts/Token.sol",
  "compiler": {
    "name": "solc",
    "version": "0.8.0+commit.c7dfd78e.Emscripten.clang"
  },
  "schemaVersion": "3.3.4",
  "updatedAt": "2021-04-04T08:12:12.222Z",
  "networkType": "ethereum",
  "devdoc": {
    "kind": "dev",
    "methods": {},
    "version": 1
  },
  "userdoc": {
    "kind": "user",
    "methods": {},
    "version": 1
  }
}